[2024-08-04T00:00:09.986] [ERROR] webApp - Error occurred in registerDID function  TypeError: Cannot read properties of undefined (reading 'getDID')
[2024-08-04T00:00:49.054] [ERROR] webApp - Error occurred in registerDID function  TypeError: registry.getFunction.getDID is not a function
[2024-08-04T00:21:48.076] [ERROR] webApp - Error occurred in registerDID function  TypeError: Cannot read properties of undefined (reading 'getDID')
[2024-08-04T00:25:51.902] [ERROR] webApp - Error occurred in registerDID function  TypeError: Cannot read properties of undefined (reading 'getDID')
[2024-08-04T00:28:06.155] [ERROR] webApp - Error occurred in registerDID function  Error: server response 403 Forbidden (request={  }, response={  }, error=null, info={ "requestUrl": "https://rpc-mumbai.maticvigil.com/", "responseBody": "Our Mumbai RPC is deprecated. Please use another provider.", "responseStatus": "403 Forbidden" }, code=SERVER_ERROR, version=6.13.2)
[2024-08-04T12:43:25.578] [ERROR] webApp - Error occurred in registerDID function  Error: server response 403 Forbidden (request={  }, response={  }, error=null, info={ "requestUrl": "https://rpc-mumbai.maticvigil.com/", "responseBody": "Our Mumbai RPC is deprecated. Please use another provider.", "responseStatus": "403 Forbidden" }, code=SERVER_ERROR, version=6.13.2)
[2024-08-04T12:46:33.389] [ERROR] webApp - Error occurred in registerDID function  Error: server response 403 Forbidden (request={  }, response={  }, error=null, info={ "requestUrl": "https://rpc-mumbai.maticvigil.com/", "responseBody": "Our Mumbai RPC is deprecated. Please use another provider.", "responseStatus": "403 Forbidden" }, code=SERVER_ERROR, version=6.13.2)
[2024-08-04T13:08:22.341] [ERROR] webApp - Error occurred in registerDID function  Error: could not decode result data (value="0x", info={ "method": "getDID", "signature": "getDID(address)" }, code=BAD_DATA, version=6.13.2)
[2024-08-04T13:10:18.624] [ERROR] webApp - Error occurred in registerDID function  Error: could not decode result data (value="0x", info={ "method": "getDID", "signature": "getDID(address)" }, code=BAD_DATA, version=6.13.2)
[2024-08-04T13:11:04.294] [ERROR] webApp - Error occurred in registerDID function  Error: could not decode result data (value="0x", info={ "method": "getDID", "signature": "getDID(address)" }, code=BAD_DATA, version=6.13.2)
[2024-08-04T13:11:29.405] [ERROR] webApp - Error occurred in registerDID function  Error: could not decode result data (value="0x", info={ "method": "getDID", "signature": "getDID(address)" }, code=BAD_DATA, version=6.13.2)
[2024-08-04T13:14:50.675] [INFO] webApp - {}
[2024-08-04T13:14:50.712] [INFO] webApp - did:polygon:testnet:0xBaf91AAADa71F9E49Bd065795367d418329d2E97
[2024-08-04T13:14:55.369] [ERROR] webApp - Error occurred in registerDID function  Error: could not coalesce error (error={ "code": -32000, "data": { "data": null, "message": "Sender doesn't have enough funds to send tx. The max upfront cost is: 58940750000000 and the sender's balance is: 0." }, "message": "Sender doesn't have enough funds to send tx. The max upfront cost is: 58940750000000 and the sender's balance is: 0." }, payload={ "id": 10, "jsonrpc": "2.0", "method": "eth_sendRawTransaction", "params": [ "0x02f890827a6980843b9aca0084a3e9ab808253b994e1bc36ac1f0f1d7b77f0e1cf44633184076ac7af80a4f64e30b0000000000000000000000000baf91aaada71f9e49bd065795367d418329d2e97c001a04512a02503591938ee54929d77460a7b4958c58ae0363af32eb12f1e5d0a197fa048116a9a7fcbbe0fe6a1943b9707770203ad5ba7b5ea1728ae7c1ba8102a050a" ] }, code=UNKNOWN_ERROR, version=6.13.2)
[2024-08-04T13:19:38.367] [INFO] webApp - {}
[2024-08-04T13:19:38.406] [INFO] webApp - did:polygon:testnet:0xf39Fd6e51aad88F6F4ce6aB8827279cffFb92266
[2024-08-04T13:19:52.857] [INFO] webApp - ContractTransactionResponse {
  provider: JsonRpcProvider {},
  blockNumber: null,
  blockHash: null,
  index: undefined,
  hash: '0xf4615052f263a51f398cd55446906671bf37751dc52e39e4d8dc848c87aa651c',
  type: 2,
  to: '0xE1bc36Ac1F0F1D7B77F0e1CF44633184076ac7Af',
  from: '0xf39Fd6e51aad88F6F4ce6aB8827279cffFb92266',
  nonce: 1,
  gasLimit: 21433n,
  gasPrice: undefined,
  maxPriorityFeePerGas: 1000000000n,
  maxFeePerGas: 2750000000n,
  maxFeePerBlobGas: null,
  data: '0xf64e30b0000000000000000000000000f39fd6e51aad88f6f4ce6ab8827279cfffb92266',
  value: 0n,
  chainId: 31337n,
  signature: Signature { r: "0x30ff20c6e83c4baaf7936a72fb2af8d8e0e0a17a88a49dd0f83cc6a54482d017", s: "0x62cd45c9062697b451e470f0da64676315bcff371fa573ae9b6f1d57ae5a4ce8", yParity: 1, networkV: null },
  accessList: [],
  blobVersionedHashes: null
}
[2024-08-04T13:25:11.211] [INFO] webApp - ContractTransactionResponse {
  provider: JsonRpcProvider {},
  blockNumber: null,
  blockHash: null,
  index: undefined,
  hash: '0xc85be29bb0c7b7f8ca019d51db399fcb550897a6471f5a15d2b025b6dbe079b7',
  type: 2,
  to: '0xE1bc36Ac1F0F1D7B77F0e1CF44633184076ac7Af',
  from: '0xf39Fd6e51aad88F6F4ce6aB8827279cffFb92266',
  nonce: 2,
  gasLimit: 21433n,
  gasPrice: undefined,
  maxPriorityFeePerGas: 1000000000n,
  maxFeePerGas: 2551756720n,
  maxFeePerBlobGas: null,
  data: '0xf64e30b0000000000000000000000000f39fd6e51aad88f6f4ce6ab8827279cfffb92266',
  value: 0n,
  chainId: 31337n,
  signature: Signature { r: "0x2db96b783e81c5e27d3de38d047e342b62a9b18362ce02aa8ab4b296f4a5a78b", s: "0x78328c28d1dcc7d39da1608d8192083b0de41174148d5891eb5e953539e63df5", yParity: 0, networkV: null },
  accessList: [],
  blobVersionedHashes: null
}
[2024-08-04T13:25:11.314] [ERROR] webApp - Error occurred in registerDID function  Error: nonce has already been used (transaction="0x02f90292827a6902843b9aca00849818b7b08270ad94e1bc36ac1f0f1d7b77f0e1cf44633184076ac7af80b9022463d61166000000000000000000000000f39fd6e51aad88f6f4ce6ab8827279cfffb92266000000000000000000000000000000000000000000000000000000000000004000000000000000000000000000000000000000000000000000000000000001bc7b2240636f6e74657874223a2268747470733a2f2f773369642e6f72672f6469642f7631222c226964223a226469643a706f6c79676f6e3a746573746e65743a307866333946643665353161616438384636463463653661423838323732373963666646623932323636222c22766572696669636174696f6e4d6574686f64223a5b7b226964223a226469643a706f6c79676f6e3a746573746e65743a307866333946643665353161616438384636463463653661423838323732373963666646623932323636236b65792d31222c2274797065223a224563647361536563703235366b31566572696669636174696f6e4b657932303139222c22636f6e74726f6c6c6572223a226469643a706f6c79676f6e3a746573746e65743a307866333946643665353161616438384636463463653661423838323732373963666646623932323636222c227075626c69634b6579426173653538223a22374c6e6d31657a397434796e504870374d6f47394c7769646738564b77514c557255747466764847587a384c64644d633874517255554446756b556770515a52566d347878394b477941553845367633744270414848336f4579796143227d5d7d00000000c001a0483acd57a546f23362f76525b69cadb82915109152b5eb0c67b94450c11bd717a060ec4ef3ecf724504882a7a16749981402d6a441649a2cce4b8ad19194120925", info={ "error": { "code": -32000, "data": { "data": null, "message": "Nonce too low. Expected nonce to be 3 but got 2. Note that transactions can't be queued when automining." }, "message": "Nonce too low. Expected nonce to be 3 but got 2. Note that transactions can't be queued when automining." } }, code=NONCE_EXPIRED, version=6.13.2)
[2024-08-04T13:26:24.995] [INFO] webApp - {}
[2024-08-04T13:26:25.033] [INFO] webApp - did:polygon:testnet:0x70997970C51812dc3A010C7d01b50e0d17dc79C8
[2024-08-04T13:26:39.785] [INFO] webApp - ContractTransactionResponse {
  provider: JsonRpcProvider {},
  blockNumber: null,
  blockHash: null,
  index: undefined,
  hash: '0x97a3b74d4c6998cf4855c3e0c364ad3b71ebc3ed4cd45b1032499cbe3f57dcd8',
  type: 2,
  to: '0xE1bc36Ac1F0F1D7B77F0e1CF44633184076ac7Af',
  from: '0x70997970C51812dc3A010C7d01b50e0d17dc79C8',
  nonce: 0,
  gasLimit: 21433n,
  gasPrice: undefined,
  maxPriorityFeePerGas: 1000000000n,
  maxFeePerGas: 2358064274n,
  maxFeePerBlobGas: null,
  data: '0xf64e30b000000000000000000000000070997970c51812dc3a010c7d01b50e0d17dc79c8',
  value: 0n,
  chainId: 31337n,
  signature: Signature { r: "0x8603c276bcfd0368441d74c7e69fb7613dbb81c0159925194d1427d92cfa293b", s: "0x3cb6c1515a63f77a58c185168242499c03a2619569fea589fe2dbc5ef4b8f3a2", yParity: 1, networkV: null },
  accessList: [],
  blobVersionedHashes: null
}
[2024-08-04T13:26:39.876] [ERROR] webApp - Error occurred in registerDID function  Error: nonce has already been used (transaction="0x02f90292827a6980843b9aca00848c8d34928270ad94e1bc36ac1f0f1d7b77f0e1cf44633184076ac7af80b9022463d6116600000000000000000000000070997970c51812dc3a010c7d01b50e0d17dc79c8000000000000000000000000000000000000000000000000000000000000004000000000000000000000000000000000000000000000000000000000000001bc7b2240636f6e74657874223a2268747470733a2f2f773369642e6f72672f6469642f7631222c226964223a226469643a706f6c79676f6e3a746573746e65743a307837303939373937304335313831326463334130313043376430316235306530643137646337394338222c22766572696669636174696f6e4d6574686f64223a5b7b226964223a226469643a706f6c79676f6e3a746573746e65743a307837303939373937304335313831326463334130313043376430316235306530643137646337394338236b65792d31222c2274797065223a224563647361536563703235366b31566572696669636174696f6e4b657932303139222c22636f6e74726f6c6c6572223a226469643a706f6c79676f6e3a746573746e65743a307837303939373937304335313831326463334130313043376430316235306530643137646337394338222c227075626c69634b6579426173653538223a22374c6e6d3161694377684c50416137517a5a615372704c7a6b325159583978356776634a3833745939576b4a33685061435771654135446a646d68683265765651424141746b6f707152396e7531625469515553337a4e754569506635227d5d7d00000000c001a0f981d8424950f40eaa8ed32fba388ddbb1aff63f1e77832955a0c047656a6775a003dfec7f76aad885647c0648d1d636532773f41ad7cec0004399aa3761591f53", info={ "error": { "code": -32000, "data": { "data": null, "message": "Nonce too low. Expected nonce to be 1 but got 0. Note that transactions can't be queued when automining." }, "message": "Nonce too low. Expected nonce to be 1 but got 0. Note that transactions can't be queued when automining." } }, code=NONCE_EXPIRED, version=6.13.2)
[2024-08-04T13:28:44.792] [INFO] webApp - ContractTransactionResponse {
  provider: JsonRpcProvider {},
  blockNumber: null,
  blockHash: null,
  index: undefined,
  hash: '0xafdf35d233bff759cfe3d7809f53027afe82b5a0eff76a2fa746726b20b835ec',
  type: 2,
  to: '0xE1bc36Ac1F0F1D7B77F0e1CF44633184076ac7Af',
  from: '0x70997970C51812dc3A010C7d01b50e0d17dc79C8',
  nonce: 1,
  gasLimit: 21433n,
  gasPrice: undefined,
  maxPriorityFeePerGas: 1000000000n,
  maxFeePerGas: 2188548792n,
  maxFeePerBlobGas: null,
  data: '0xf64e30b000000000000000000000000070997970c51812dc3a010c7d01b50e0d17dc79c8',
  value: 0n,
  chainId: 31337n,
  signature: Signature { r: "0x118e5b2cb94fef2a87449b3dbaf35b7d934e1084699646d15b9137f7c7a1e09f", s: "0x387a053d9ffd6658b5c538743a4a85e88c99248e17f5f9e9de561cba127c1c6e", yParity: 0, networkV: null },
  accessList: [],
  blobVersionedHashes: null
}
[2024-08-04T13:28:44.873] [ERROR] webApp - Error occurred in registerDID function  Error: nonce has already been used (transaction="0x02f90292827a6901843b9aca008482729ab88270ad94e1bc36ac1f0f1d7b77f0e1cf44633184076ac7af80b9022463d6116600000000000000000000000070997970c51812dc3a010c7d01b50e0d17dc79c8000000000000000000000000000000000000000000000000000000000000004000000000000000000000000000000000000000000000000000000000000001bc7b2240636f6e74657874223a2268747470733a2f2f773369642e6f72672f6469642f7631222c226964223a226469643a706f6c79676f6e3a746573746e65743a307837303939373937304335313831326463334130313043376430316235306530643137646337394338222c22766572696669636174696f6e4d6574686f64223a5b7b226964223a226469643a706f6c79676f6e3a746573746e65743a307837303939373937304335313831326463334130313043376430316235306530643137646337394338236b65792d31222c2274797065223a224563647361536563703235366b31566572696669636174696f6e4b657932303139222c22636f6e74726f6c6c6572223a226469643a706f6c79676f6e3a746573746e65743a307837303939373937304335313831326463334130313043376430316235306530643137646337394338222c227075626c69634b6579426173653538223a22374c6e6d3161694377684c50416137517a5a615372704c7a6b325159583978356776634a3833745939576b4a33685061435771654135446a646d68683265765651424141746b6f707152396e7531625469515553337a4e754569506635227d5d7d00000000c001a003e3e320f80b205c1522b44c6323d7843549b309454e445d4a3ed664e7e98e1ea06aec455264fccb79e1f72267aa7d81e1532c5e2e348cc4798537759a5070c89f", info={ "error": { "code": -32000, "data": { "data": null, "message": "Nonce too low. Expected nonce to be 2 but got 1. Note that transactions can't be queued when automining." }, "message": "Nonce too low. Expected nonce to be 2 but got 1. Note that transactions can't be queued when automining." } }, code=NONCE_EXPIRED, version=6.13.2)
[2024-08-04T13:35:13.663] [INFO] webApp - {}
[2024-08-04T13:35:13.701] [INFO] webApp - did:polygon:testnet:0x70997970C51812dc3A010C7d01b50e0d17dc79C8
[2024-08-04T13:35:30.803] [INFO] webApp - ContractTransactionResponse {
  provider: JsonRpcProvider {},
  blockNumber: null,
  blockHash: null,
  index: undefined,
  hash: '0x7c0549eda54f6649ac0df74289db96e8881fdc4282af70561e43d83018067fa1',
  type: 2,
  to: '0xE1bc36Ac1F0F1D7B77F0e1CF44633184076ac7Af',
  from: '0x70997970C51812dc3A010C7d01b50e0d17dc79C8',
  nonce: 2,
  gasLimit: 21433n,
  gasPrice: undefined,
  maxPriorityFeePerGas: 1000000000n,
  maxFeePerGas: 2040192468n,
  maxFeePerBlobGas: null,
  data: '0xf64e30b000000000000000000000000070997970c51812dc3a010c7d01b50e0d17dc79c8',
  value: 0n,
  chainId: 31337n,
  signature: Signature { r: "0xe4f76d6478bfb2b8ecd0aa20fb9eb2217d22e437e086119d79a5ca73c6f6d1ed", s: "0x6f5fc3e0961da85cbf0bf6ddfe72b454f162b7a9efbc56c8ecb15b3c7590381b", yParity: 0, networkV: null },
  accessList: [],
  blobVersionedHashes: null
}
[2024-08-04T13:35:30.882] [ERROR] webApp - Error occurred in registerDID function  Error: nonce has already been used (transaction="0x02f90292827a6902843b9aca0084799addd48270ad94e1bc36ac1f0f1d7b77f0e1cf44633184076ac7af80b9022463d6116600000000000000000000000070997970c51812dc3a010c7d01b50e0d17dc79c8000000000000000000000000000000000000000000000000000000000000004000000000000000000000000000000000000000000000000000000000000001bc7b2240636f6e74657874223a2268747470733a2f2f773369642e6f72672f6469642f7631222c226964223a226469643a706f6c79676f6e3a746573746e65743a307837303939373937304335313831326463334130313043376430316235306530643137646337394338222c22766572696669636174696f6e4d6574686f64223a5b7b226964223a226469643a706f6c79676f6e3a746573746e65743a307837303939373937304335313831326463334130313043376430316235306530643137646337394338236b65792d31222c2274797065223a224563647361536563703235366b31566572696669636174696f6e4b657932303139222c22636f6e74726f6c6c6572223a226469643a706f6c79676f6e3a746573746e65743a307837303939373937304335313831326463334130313043376430316235306530643137646337394338222c227075626c69634b6579426173653538223a22374c6e6d3161694377684c50416137517a5a615372704c7a6b325159583978356776634a3833745939576b4a33685061435771654135446a646d68683265765651424141746b6f707152396e7531625469515553337a4e754569506635227d5d7d00000000c080a06b1707fe4c4bcca2ba7c13b2ff332ef41032f03e98765485c02bd19eb0a8c36aa023150ee33b65dd68d82f63f49e247cd6560ca86292cf7cb8c65c56441e9e6836", info={ "error": { "code": -32000, "data": { "data": null, "message": "Nonce too low. Expected nonce to be 3 but got 2. Note that transactions can't be queued when automining." }, "message": "Nonce too low. Expected nonce to be 3 but got 2. Note that transactions can't be queued when automining." } }, code=NONCE_EXPIRED, version=6.13.2)
[2024-08-04T14:23:43.776] [INFO] webApp - Private key and DID uri do not match!
[2024-08-04T14:24:03.108] [INFO] webApp - {}
[2024-08-04T14:24:03.153] [INFO] webApp - did:polygon:testnet:0xf39Fd6e51aad88F6F4ce6aB8827279cffFb92266
[2024-08-04T14:24:15.626] [ERROR] webApp - Error occurred in registerDID function  Error: nonce has already been used (transaction="0x02f90292827a6903843b9aca008471ddb10c8270ad94e1bc36ac1f0f1d7b77f0e1cf44633184076ac7af80b9022463d61166000000000000000000000000f39fd6e51aad88f6f4ce6ab8827279cfffb92266000000000000000000000000000000000000000000000000000000000000004000000000000000000000000000000000000000000000000000000000000001bc7b2240636f6e74657874223a2268747470733a2f2f773369642e6f72672f6469642f7631222c226964223a226469643a706f6c79676f6e3a746573746e65743a307866333946643665353161616438384636463463653661423838323732373963666646623932323636222c22766572696669636174696f6e4d6574686f64223a5b7b226964223a226469643a706f6c79676f6e3a746573746e65743a307866333946643665353161616438384636463463653661423838323732373963666646623932323636236b65792d31222c2274797065223a224563647361536563703235366b31566572696669636174696f6e4b657932303139222c22636f6e74726f6c6c6572223a226469643a706f6c79676f6e3a746573746e65743a307866333946643665353161616438384636463463653661423838323732373963666646623932323636222c227075626c69634b6579426173653538223a22374c6e6d31657a397434796e504870374d6f47394c7769646738564b77514c557255747466764847587a384c64644d633874517255554446756b556770515a52566d347878394b477941553845367633744270414848336f4579796143227d5d7d00000000c001a08b9afd5985fbcc6fbf66e24ea9bb53937535f574f83bda6f14e779af6ac231a2a02c57a4dd89cf939322d91c09374215cb22a5c7244db94df29214cf66adfc8b97", info={ "error": { "code": -32000, "data": { "data": null, "message": "Nonce too low. Expected nonce to be 4 but got 3. Note that transactions can't be queued when automining." }, "message": "Nonce too low. Expected nonce to be 4 but got 3. Note that transactions can't be queued when automining." } }, code=NONCE_EXPIRED, version=6.13.2)
[2024-08-04T14:29:14.885] [INFO] webApp - {}
[2024-08-04T14:29:14.922] [INFO] webApp - did:polygon:testnet:0xf39Fd6e51aad88F6F4ce6aB8827279cffFb92266
[2024-08-04T14:29:30.845] [ERROR] webApp - Error occurred in registerDID function  Error: nonce has already been used (transaction="0x02f90292827a6901843b9aca0084a3e9ab808270ad94e1bc36ac1f0f1d7b77f0e1cf44633184076ac7af80b9022463d61166000000000000000000000000f39fd6e51aad88f6f4ce6ab8827279cfffb92266000000000000000000000000000000000000000000000000000000000000004000000000000000000000000000000000000000000000000000000000000001bc7b2240636f6e74657874223a2268747470733a2f2f773369642e6f72672f6469642f7631222c226964223a226469643a706f6c79676f6e3a746573746e65743a307866333946643665353161616438384636463463653661423838323732373963666646623932323636222c22766572696669636174696f6e4d6574686f64223a5b7b226964223a226469643a706f6c79676f6e3a746573746e65743a307866333946643665353161616438384636463463653661423838323732373963666646623932323636236b65792d31222c2274797065223a224563647361536563703235366b31566572696669636174696f6e4b657932303139222c22636f6e74726f6c6c6572223a226469643a706f6c79676f6e3a746573746e65743a307866333946643665353161616438384636463463653661423838323732373963666646623932323636222c227075626c69634b6579426173653538223a22374c6e6d31657a397434796e504870374d6f47394c7769646738564b77514c557255747466764847587a384c64644d633874517255554446756b556770515a52566d347878394b477941553845367633744270414848336f4579796143227d5d7d00000000c001a0303310e265c42ad85e6aa6dde676ccf076469297af72e58d2c6a7587d298090da02638b2faa7f7ce215a7b92a135bbf7d17eca191e479062ff3989de689392f820", info={ "error": { "code": -32000, "data": { "data": null, "message": "Nonce too low. Expected nonce to be 2 but got 1. Note that transactions can't be queued when automining." }, "message": "Nonce too low. Expected nonce to be 2 but got 1. Note that transactions can't be queued when automining." } }, code=NONCE_EXPIRED, version=6.13.2)
[2024-08-04T14:40:50.371] [INFO] webApp - [registerDID] txnHash - {"_type":"TransactionResponse","accessList":[],"blockNumber":null,"blockHash":null,"blobVersionedHashes":null,"chainId":"31337","data":"0x63d61166000000000000000000000000f39fd6e51aad88f6f4ce6ab8827279cfffb92266000000000000000000000000000000000000000000000000000000000000004000000000000000000000000000000000000000000000000000000000000001bc7b2240636f6e74657874223a2268747470733a2f2f773369642e6f72672f6469642f7631222c226964223a226469643a706f6c79676f6e3a746573746e65743a307866333946643665353161616438384636463463653661423838323732373963666646623932323636222c22766572696669636174696f6e4d6574686f64223a5b7b226964223a226469643a706f6c79676f6e3a746573746e65743a307866333946643665353161616438384636463463653661423838323732373963666646623932323636236b65792d31222c2274797065223a224563647361536563703235366b31566572696669636174696f6e4b657932303139222c22636f6e74726f6c6c6572223a226469643a706f6c79676f6e3a746573746e65743a307866333946643665353161616438384636463463653661423838323732373963666646623932323636222c227075626c69634b6579426173653538223a22374c6e6d31657a397434796e504870374d6f47394c7769646738564b77514c557255747466764847587a384c64644d633874517255554446756b556770515a52566d347878394b477941553845367633744270414848336f4579796143227d5d7d00000000","from":"0xf39Fd6e51aad88F6F4ce6aB8827279cffFb92266","gasLimit":"28845","gasPrice":null,"hash":"0x8c62aa6dbf29da39eb2bdea35c330972abe3c21f651969c724268bd804fd05fb","maxFeePerGas":"2551756720","maxPriorityFeePerGas":"1000000000","maxFeePerBlobGas":null,"nonce":2,"signature":{"_type":"signature","networkV":null,"r":"0x483acd57a546f23362f76525b69cadb82915109152b5eb0c67b94450c11bd717","s":"0x60ec4ef3ecf724504882a7a16749981402d6a441649a2cce4b8ad19194120925","v":28},"to":"0xE1bc36Ac1F0F1D7B77F0e1CF44633184076ac7Af","type":2,"value":"0"} 



[2024-08-04T14:47:17.625] [ERROR] webApp - Error occurred in registerDID function  Error: nonce has already been used (transaction="0x02f90292827a6903843b9aca00848c8d34928270ad94e1bc36ac1f0f1d7b77f0e1cf44633184076ac7af80b9022463d61166000000000000000000000000f39fd6e51aad88f6f4ce6ab8827279cfffb92266000000000000000000000000000000000000000000000000000000000000004000000000000000000000000000000000000000000000000000000000000001bc7b2240636f6e74657874223a2268747470733a2f2f773369642e6f72672f6469642f7631222c226964223a226469643a706f6c79676f6e3a746573746e65743a307866333946643665353161616438384636463463653661423838323732373963666646623932323636222c22766572696669636174696f6e4d6574686f64223a5b7b226964223a226469643a706f6c79676f6e3a746573746e65743a307866333946643665353161616438384636463463653661423838323732373963666646623932323636236b65792d31222c2274797065223a224563647361536563703235366b31566572696669636174696f6e4b657932303139222c22636f6e74726f6c6c6572223a226469643a706f6c79676f6e3a746573746e65743a307866333946643665353161616438384636463463653661423838323732373963666646623932323636222c227075626c69634b6579426173653538223a22374c6e6d31657a397434796e504870374d6f47394c7769646738564b77514c557255747466764847587a384c64644d633874517255554446756b556770515a52566d347878394b477941553845367633744270414848336f4579796143227d5d7d00000000c080a02eee5b0f808911b09b9ccb0e4a15c6176069ee7b2ea5c678b9c46d52b24d79cda0740f64f9634bda791be1eeffb85accd3897c28afd23bcc5fbfa250b48168bb3f", info={ "error": { "code": -32000, "data": { "data": null, "message": "Nonce too low. Expected nonce to be 4 but got 3. Note that transactions can't be queued when automining." }, "message": "Nonce too low. Expected nonce to be 4 but got 3. Note that transactions can't be queued when automining." } }, code=NONCE_EXPIRED, version=6.13.2)
[2024-08-04T14:47:48.583] [ERROR] webApp - Error occurred in registerDID function  Error: nonce has already been used (transaction="0x02f90292827a6901843b9aca0084a3e9ab808270ad94e1bc36ac1f0f1d7b77f0e1cf44633184076ac7af80b9022463d61166000000000000000000000000f39fd6e51aad88f6f4ce6ab8827279cfffb92266000000000000000000000000000000000000000000000000000000000000004000000000000000000000000000000000000000000000000000000000000001bc7b2240636f6e74657874223a2268747470733a2f2f773369642e6f72672f6469642f7631222c226964223a226469643a706f6c79676f6e3a746573746e65743a307866333946643665353161616438384636463463653661423838323732373963666646623932323636222c22766572696669636174696f6e4d6574686f64223a5b7b226964223a226469643a706f6c79676f6e3a746573746e65743a307866333946643665353161616438384636463463653661423838323732373963666646623932323636236b65792d31222c2274797065223a224563647361536563703235366b31566572696669636174696f6e4b657932303139222c22636f6e74726f6c6c6572223a226469643a706f6c79676f6e3a746573746e65743a307866333946643665353161616438384636463463653661423838323732373963666646623932323636222c227075626c69634b6579426173653538223a22374c6e6d31657a397434796e504870374d6f47394c7769646738564b77514c557255747466764847587a384c64644d633874517255554446756b556770515a52566d347878394b477941553845367633744270414848336f4579796143227d5d7d00000000c001a0303310e265c42ad85e6aa6dde676ccf076469297af72e58d2c6a7587d298090da02638b2faa7f7ce215a7b92a135bbf7d17eca191e479062ff3989de689392f820", info={ "error": { "code": -32000, "data": { "data": null, "message": "Nonce too low. Expected nonce to be 2 but got 1. Note that transactions can't be queued when automining." }, "message": "Nonce too low. Expected nonce to be 2 but got 1. Note that transactions can't be queued when automining." } }, code=NONCE_EXPIRED, version=6.13.2)
[2024-08-04T14:48:10.657] [INFO] webApp - [registerDID] txnHash - {"_type":"TransactionResponse","accessList":[],"blockNumber":null,"blockHash":null,"blobVersionedHashes":null,"chainId":"31337","data":"0x63d61166000000000000000000000000f39fd6e51aad88f6f4ce6ab8827279cfffb92266000000000000000000000000000000000000000000000000000000000000004000000000000000000000000000000000000000000000000000000000000001bc7b2240636f6e74657874223a2268747470733a2f2f773369642e6f72672f6469642f7631222c226964223a226469643a706f6c79676f6e3a746573746e65743a307866333946643665353161616438384636463463653661423838323732373963666646623932323636222c22766572696669636174696f6e4d6574686f64223a5b7b226964223a226469643a706f6c79676f6e3a746573746e65743a307866333946643665353161616438384636463463653661423838323732373963666646623932323636236b65792d31222c2274797065223a224563647361536563703235366b31566572696669636174696f6e4b657932303139222c22636f6e74726f6c6c6572223a226469643a706f6c79676f6e3a746573746e65743a307866333946643665353161616438384636463463653661423838323732373963666646623932323636222c227075626c69634b6579426173653538223a22374c6e6d31657a397434796e504870374d6f47394c7769646738564b77514c557255747466764847587a384c64644d633874517255554446756b556770515a52566d347878394b477941553845367633744270414848336f4579796143227d5d7d00000000","from":"0xf39Fd6e51aad88F6F4ce6aB8827279cffFb92266","gasLimit":"28845","gasPrice":null,"hash":"0x8c62aa6dbf29da39eb2bdea35c330972abe3c21f651969c724268bd804fd05fb","maxFeePerGas":"2551756720","maxPriorityFeePerGas":"1000000000","maxFeePerBlobGas":null,"nonce":2,"signature":{"_type":"signature","networkV":null,"r":"0x483acd57a546f23362f76525b69cadb82915109152b5eb0c67b94450c11bd717","s":"0x60ec4ef3ecf724504882a7a16749981402d6a441649a2cce4b8ad19194120925","v":28},"to":"0xE1bc36Ac1F0F1D7B77F0e1CF44633184076ac7Af","type":2,"value":"0"} 



[2024-08-04T14:55:21.288] [INFO] webApp - [registerDID] txnHash - {"_type":"TransactionResponse","accessList":[],"blockNumber":null,"blockHash":null,"blobVersionedHashes":null,"chainId":"31337","data":"0x63d61166000000000000000000000000f39fd6e51aad88f6f4ce6ab8827279cfffb92266000000000000000000000000000000000000000000000000000000000000004000000000000000000000000000000000000000000000000000000000000001bc7b2240636f6e74657874223a2268747470733a2f2f773369642e6f72672f6469642f7631222c226964223a226469643a706f6c79676f6e3a746573746e65743a307866333946643665353161616438384636463463653661423838323732373963666646623932323636222c22766572696669636174696f6e4d6574686f64223a5b7b226964223a226469643a706f6c79676f6e3a746573746e65743a307866333946643665353161616438384636463463653661423838323732373963666646623932323636236b65792d31222c2274797065223a224563647361536563703235366b31566572696669636174696f6e4b657932303139222c22636f6e74726f6c6c6572223a226469643a706f6c79676f6e3a746573746e65743a307866333946643665353161616438384636463463653661423838323732373963666646623932323636222c227075626c69634b6579426173653538223a22374c6e6d31657a397434796e504870374d6f47394c7769646738564b77514c557255747466764847587a384c64644d633874517255554446756b556770515a52566d347878394b477941553845367633744270414848336f4579796143227d5d7d00000000","from":"0xf39Fd6e51aad88F6F4ce6aB8827279cffFb92266","gasLimit":"28845","gasPrice":null,"hash":"0xbbdecea59566e21dfd3881d9ee8314df5e0a783054d63192034b9735e76e26e6","maxFeePerGas":"2358064274","maxPriorityFeePerGas":"1000000000","maxFeePerBlobGas":null,"nonce":3,"signature":{"_type":"signature","networkV":null,"r":"0x2eee5b0f808911b09b9ccb0e4a15c6176069ee7b2ea5c678b9c46d52b24d79cd","s":"0x740f64f9634bda791be1eeffb85accd3897c28afd23bcc5fbfa250b48168bb3f","v":27},"to":"0xE1bc36Ac1F0F1D7B77F0e1CF44633184076ac7Af","type":2,"value":"0"} 



[2024-08-04T14:58:13.694] [INFO] webApp - [registerDID] txnHash - {"_type":"TransactionResponse","accessList":[],"blockNumber":null,"blockHash":null,"blobVersionedHashes":null,"chainId":"31337","data":"0x63d61166000000000000000000000000f39fd6e51aad88f6f4ce6ab8827279cfffb92266000000000000000000000000000000000000000000000000000000000000004000000000000000000000000000000000000000000000000000000000000001bc7b2240636f6e74657874223a2268747470733a2f2f773369642e6f72672f6469642f7631222c226964223a226469643a706f6c79676f6e3a746573746e65743a307866333946643665353161616438384636463463653661423838323732373963666646623932323636222c22766572696669636174696f6e4d6574686f64223a5b7b226964223a226469643a706f6c79676f6e3a746573746e65743a307866333946643665353161616438384636463463653661423838323732373963666646623932323636236b65792d31222c2274797065223a224563647361536563703235366b31566572696669636174696f6e4b657932303139222c22636f6e74726f6c6c6572223a226469643a706f6c79676f6e3a746573746e65743a307866333946643665353161616438384636463463653661423838323732373963666646623932323636222c227075626c69634b6579426173653538223a22374c6e6d31657a397434796e504870374d6f47394c7769646738564b77514c557255747466764847587a384c64644d633874517255554446756b556770515a52566d347878394b477941553845367633744270414848336f4579796143227d5d7d00000000","from":"0xf39Fd6e51aad88F6F4ce6aB8827279cffFb92266","gasLimit":"28845","gasPrice":null,"hash":"0xd9b3f9d3474eb0d55db836cb6854521b4b1a3aac83e5fad9a7e4ba51ac151c61","maxFeePerGas":"2040339298","maxPriorityFeePerGas":"1000000000","maxFeePerBlobGas":null,"nonce":5,"signature":{"_type":"signature","networkV":null,"r":"0x433e1cf57271c27e5e072ef0a162758b99159c4cb5ac493667e892a6380815b4","s":"0x6dbfafe01a254ef7c673d96217062a358cd9e6a6f1a7034d5c03033f953e04ba","v":28},"to":"0xE1bc36Ac1F0F1D7B77F0e1CF44633184076ac7Af","type":2,"value":"0"} 



[2024-08-04T15:52:06.114] [ERROR] webApp - Error occurred in registerDID function  TypeError: resolveDidDoc.data.toHexString is not a function
[2024-08-04T15:54:08.510] [ERROR] webApp - Error occurred in registerDID function  TypeError: Cannot read properties of undefined (reading 'formatBytes32String')
[2024-08-04T15:55:16.669] [ERROR] webApp - Error occurred in registerDID function  TypeError: Cannot read properties of undefined (reading 'formatBytes32String')
[2024-08-04T15:55:45.905] [ERROR] webApp - Error occurred in registerDID function  TypeError: Cannot read properties of undefined (reading 'toUtf8String')
[2024-08-04T16:19:03.830] [ERROR] webApp - Error occurred in registerDID function  TypeError: Cannot read properties of undefined (reading 'toUtf8String')
[2024-08-04T16:26:27.012] [INFO] webApp - [registerDID] txnHash - {"_type":"TransactionResponse","accessList":[],"blockNumber":null,"blockHash":null,"blobVersionedHashes":null,"chainId":"31337","data":"0x63d61166000000000000000000000000f39fd6e51aad88f6f4ce6ab8827279cfffb92266000000000000000000000000000000000000000000000000000000000000004000000000000000000000000000000000000000000000000000000000000001bc7b2240636f6e74657874223a2268747470733a2f2f773369642e6f72672f6469642f7631222c226964223a226469643a706f6c79676f6e3a746573746e65743a307866333946643665353161616438384636463463653661423838323732373963666646623932323636222c22766572696669636174696f6e4d6574686f64223a5b7b226964223a226469643a706f6c79676f6e3a746573746e65743a307866333946643665353161616438384636463463653661423838323732373963666646623932323636236b65792d31222c2274797065223a224563647361536563703235366b31566572696669636174696f6e4b657932303139222c22636f6e74726f6c6c6572223a226469643a706f6c79676f6e3a746573746e65743a307866333946643665353161616438384636463463653661423838323732373963666646623932323636222c227075626c69634b6579426173653538223a22374c6e6d31657a397434796e504870374d6f47394c7769646738564b77514c557255747466764847587a384c64644d633874517255554446756b556770515a52566d347878394b477941553845367633744270414848336f4579796143227d5d7d00000000","from":"0xf39Fd6e51aad88F6F4ce6aB8827279cffFb92266","gasLimit":"28845","gasPrice":null,"hash":"0x0d4d90299b11073b1db5b33f5f8188923ead6c3207073b680dcea07765794389","maxFeePerGas":"1409063318","maxPriorityFeePerGas":"1000000000","maxFeePerBlobGas":null,"nonce":12,"signature":{"_type":"signature","networkV":null,"r":"0x769e3a4687487ab48e9908b2bf404d9cb8e813051f73fc06def0adb725eca21f","s":"0x42bf95e56d157e38390a89af61d687f770c4716845145f6711e33589267d3cd4","v":28},"to":"0xE1bc36Ac1F0F1D7B77F0e1CF44633184076ac7Af","type":2,"value":"0"} 



[2024-08-04T21:45:03.891] [INFO] webApp - [registerDID] txnHash - {"_type":"TransactionResponse","accessList":[],"blockNumber":null,"blockHash":null,"blobVersionedHashes":null,"chainId":"31337","data":"0x63d61166000000000000000000000000f39fd6e51aad88f6f4ce6ab8827279cfffb92266000000000000000000000000000000000000000000000000000000000000004000000000000000000000000000000000000000000000000000000000000001bc7b2240636f6e74657874223a2268747470733a2f2f773369642e6f72672f6469642f7631222c226964223a226469643a706f6c79676f6e3a746573746e65743a307866333946643665353161616438384636463463653661423838323732373963666646623932323636222c22766572696669636174696f6e4d6574686f64223a5b7b226964223a226469643a706f6c79676f6e3a746573746e65743a307866333946643665353161616438384636463463653661423838323732373963666646623932323636236b65792d31222c2274797065223a224563647361536563703235366b31566572696669636174696f6e4b657932303139222c22636f6e74726f6c6c6572223a226469643a706f6c79676f6e3a746573746e65743a307866333946643665353161616438384636463463653661423838323732373963666646623932323636222c227075626c69634b6579426173653538223a22374c6e6d31657a397434796e504870374d6f47394c7769646738564b77514c557255747466764847587a384c64644d633874517255554446756b556770515a52566d347878394b477941553845367633744270414848336f4579796143227d5d7d00000000","from":"0xf39Fd6e51aad88F6F4ce6aB8827279cffFb92266","gasLimit":"28845","gasPrice":null,"hash":"0x0330c583c6027a94bcd8034a6d60aea07aedf2cac101d69c11a7436da0fb0e1f","maxFeePerGas":"1358003462","maxPriorityFeePerGas":"1000000000","maxFeePerBlobGas":null,"nonce":13,"signature":{"_type":"signature","networkV":null,"r":"0x5b1805d9c77caaaa8f80b8df42a1afcdfe0d9b6c4b799f77c7e6ba071080cecb","s":"0x0ef225e41dd1ff429956e1defa9741c6dfdf2b4b1b57688441358d0cb456ceb4","v":27},"to":"0xE1bc36Ac1F0F1D7B77F0e1CF44633184076ac7Af","type":2,"value":"0"} 



[2024-08-04T21:56:44.225] [ERROR] webApp - Error occurred in registerDID function  Error: no matching fragment (operation="fragment", info={ "args": [  ], "key": "getDID" }, code=UNSUPPORTED_OPERATION, version=6.13.2)
[2024-08-04T22:04:40.062] [ERROR] webApp - Error occurred in registerDID function  TypeError: Cannot read properties of undefined (reading 'toUtf8String')
[2024-08-04T22:06:18.144] [ERROR] webApp - Error occurred in registerDID function  Error: bytes32 string must be less than 32 bytes
[2024-08-04T22:06:57.882] [ERROR] webApp - Error occurred in registerDID function  Error: invalid bytes32 - not 32 bytes long
[2024-08-04T22:27:18.057] [ERROR] webApp - Error occurred in registerDID function  TypeError: ethers.JsonRpcProvider is not a constructor
[2024-08-04T22:28:15.644] [ERROR] webApp - Error occurred in registerDID function  TypeError: ethers.decodeBytes32String is not a function
[2024-08-04T22:31:55.768] [ERROR] webApp - Error occurred in registerDID function  TypeError: resolveDidDoc.data.toHexString is not a function
[2024-08-04T22:34:47.740] [ERROR] webApp - Error occurred in registerDID function  TypeError: resolveDidDoc.data.toHexString is not a function
[2024-08-04T22:36:51.683] [INFO] webApp - [registerDID] txnHash - {"type":2,"chainId":31337,"nonce":30,"maxPriorityFeePerGas":{"type":"BigNumber","hex":"0x59682f00"},"maxFeePerGas":{"type":"BigNumber","hex":"0x5b9e91c8"},"gasPrice":null,"gasLimit":{"type":"BigNumber","hex":"0x70ad"},"to":"0xE1bc36Ac1F0F1D7B77F0e1CF44633184076ac7Af","value":{"type":"BigNumber","hex":"0x00"},"data":"0x63d61166000000000000000000000000f39fd6e51aad88f6f4ce6ab8827279cfffb92266000000000000000000000000000000000000000000000000000000000000004000000000000000000000000000000000000000000000000000000000000001bc7b2240636f6e74657874223a2268747470733a2f2f773369642e6f72672f6469642f7631222c226964223a226469643a706f6c79676f6e3a746573746e65743a307866333946643665353161616438384636463463653661423838323732373963666646623932323636222c22766572696669636174696f6e4d6574686f64223a5b7b226964223a226469643a706f6c79676f6e3a746573746e65743a307866333946643665353161616438384636463463653661423838323732373963666646623932323636236b65792d31222c2274797065223a224563647361536563703235366b31566572696669636174696f6e4b657932303139222c22636f6e74726f6c6c6572223a226469643a706f6c79676f6e3a746573746e65743a307866333946643665353161616438384636463463653661423838323732373963666646623932323636222c227075626c69634b6579426173653538223a22374c6e6d31657a397434796e504870374d6f47394c7769646738564b77514c557255747466764847587a384c64644d633874517255554446756b556770515a52566d347878394b477941553845367633744270414848336f4579796143227d5d7d00000000","accessList":[],"hash":"0x9501e5be15f6ac9da8d3a74f9a815b5e1ff585b40c40e7302de7b2f755d576f9","v":1,"r":"0x8a090bdc6823bfa34315ad7e93f1ab006c0b1223fe1d696e05c166455a0a57fc","s":"0x2d05a64c39718adc8d6d70cdeda1b76eab4bb92dbea5cbf480bd8f39293b96f5","from":"0xf39Fd6e51aad88F6F4ce6aB8827279cffFb92266","confirmations":0} 



[2024-08-04T22:39:39.680] [INFO] webApp - [registerDID] txnHash - {"type":2,"chainId":31337,"nonce":31,"maxPriorityFeePerGas":{"type":"BigNumber","hex":"0x59682f00"},"maxFeePerGas":{"type":"BigNumber","hex":"0x5b57df56"},"gasPrice":null,"gasLimit":{"type":"BigNumber","hex":"0x70ad"},"to":"0xE1bc36Ac1F0F1D7B77F0e1CF44633184076ac7Af","value":{"type":"BigNumber","hex":"0x00"},"data":"0x63d61166000000000000000000000000f39fd6e51aad88f6f4ce6ab8827279cfffb92266000000000000000000000000000000000000000000000000000000000000004000000000000000000000000000000000000000000000000000000000000001bc7b2240636f6e74657874223a2268747470733a2f2f773369642e6f72672f6469642f7631222c226964223a226469643a706f6c79676f6e3a746573746e65743a307866333946643665353161616438384636463463653661423838323732373963666646623932323636222c22766572696669636174696f6e4d6574686f64223a5b7b226964223a226469643a706f6c79676f6e3a746573746e65743a307866333946643665353161616438384636463463653661423838323732373963666646623932323636236b65792d31222c2274797065223a224563647361536563703235366b31566572696669636174696f6e4b657932303139222c22636f6e74726f6c6c6572223a226469643a706f6c79676f6e3a746573746e65743a307866333946643665353161616438384636463463653661423838323732373963666646623932323636222c227075626c69634b6579426173653538223a22374c6e6d31657a397434796e504870374d6f47394c7769646738564b77514c557255747466764847587a384c64644d633874517255554446756b556770515a52566d347878394b477941553845367633744270414848336f4579796143227d5d7d00000000","accessList":[],"hash":"0x022220e52f84ea9c6709be2dcf22fe62648f88831243def5c788efa2aed5404d","v":0,"r":"0x3dbed7a076e69e7c88169d3be31895211aca63afe59012d9ddb83f0a47241774","s":"0x7a8ad4506e2f4e581eda9aa9a1667eef67a74e5c84434b6832971c61c9050dfd","from":"0xf39Fd6e51aad88F6F4ce6aB8827279cffFb92266","confirmations":0} 



[2024-08-04T22:40:13.804] [INFO] webApp - [registerDID] txnHash - {"type":2,"chainId":31337,"nonce":32,"maxPriorityFeePerGas":{"type":"BigNumber","hex":"0x59682f00"},"maxFeePerGas":{"type":"BigNumber","hex":"0x5b1a07cc"},"gasPrice":null,"gasLimit":{"type":"BigNumber","hex":"0x70ad"},"to":"0xE1bc36Ac1F0F1D7B77F0e1CF44633184076ac7Af","value":{"type":"BigNumber","hex":"0x00"},"data":"0x63d61166000000000000000000000000f39fd6e51aad88f6f4ce6ab8827279cfffb92266000000000000000000000000000000000000000000000000000000000000004000000000000000000000000000000000000000000000000000000000000001bc7b2240636f6e74657874223a2268747470733a2f2f773369642e6f72672f6469642f7631222c226964223a226469643a706f6c79676f6e3a746573746e65743a307866333946643665353161616438384636463463653661423838323732373963666646623932323636222c22766572696669636174696f6e4d6574686f64223a5b7b226964223a226469643a706f6c79676f6e3a746573746e65743a307866333946643665353161616438384636463463653661423838323732373963666646623932323636236b65792d31222c2274797065223a224563647361536563703235366b31566572696669636174696f6e4b657932303139222c22636f6e74726f6c6c6572223a226469643a706f6c79676f6e3a746573746e65743a307866333946643665353161616438384636463463653661423838323732373963666646623932323636222c227075626c69634b6579426173653538223a22374c6e6d31657a397434796e504870374d6f47394c7769646738564b77514c557255747466764847587a384c64644d633874517255554446756b556770515a52566d347878394b477941553845367633744270414848336f4579796143227d5d7d00000000","accessList":[],"hash":"0x7b470a7006431044ff56c2a32cc077e7b1b677d7a7d7171ef69c3ff07726125d","v":0,"r":"0x553235b9162762ea2f5037d7a1228058298bd1e7ae6ffc041d99d58e5570781f","s":"0x26f27f68e1b66bc7a54f47c87364f3ec4fd7ab9e0170e62b0cd7f7ec218b7cc1","from":"0xf39Fd6e51aad88F6F4ce6aB8827279cffFb92266","confirmations":0} 



[2024-08-04T22:41:01.351] [INFO] webApp - [registerDID] txnHash - {"type":2,"chainId":31337,"nonce":33,"maxPriorityFeePerGas":{"type":"BigNumber","hex":"0x59682f00"},"maxFeePerGas":{"type":"BigNumber","hex":"0x5ae3e766"},"gasPrice":null,"gasLimit":{"type":"BigNumber","hex":"0x70ad"},"to":"0xE1bc36Ac1F0F1D7B77F0e1CF44633184076ac7Af","value":{"type":"BigNumber","hex":"0x00"},"data":"0x63d61166000000000000000000000000f39fd6e51aad88f6f4ce6ab8827279cfffb92266000000000000000000000000000000000000000000000000000000000000004000000000000000000000000000000000000000000000000000000000000001bc7b2240636f6e74657874223a2268747470733a2f2f773369642e6f72672f6469642f7631222c226964223a226469643a706f6c79676f6e3a746573746e65743a307866333946643665353161616438384636463463653661423838323732373963666646623932323636222c22766572696669636174696f6e4d6574686f64223a5b7b226964223a226469643a706f6c79676f6e3a746573746e65743a307866333946643665353161616438384636463463653661423838323732373963666646623932323636236b65792d31222c2274797065223a224563647361536563703235366b31566572696669636174696f6e4b657932303139222c22636f6e74726f6c6c6572223a226469643a706f6c79676f6e3a746573746e65743a307866333946643665353161616438384636463463653661423838323732373963666646623932323636222c227075626c69634b6579426173653538223a22374c6e6d31657a397434796e504870374d6f47394c7769646738564b77514c557255747466764847587a384c64644d633874517255554446756b556770515a52566d347878394b477941553845367633744270414848336f4579796143227d5d7d00000000","accessList":[],"hash":"0xba71a1a999a4e10c60f341af145466494808b086d716fd1167c1cdb1faedd7fa","v":1,"r":"0xcedbdb53ce2b6e3369c7a21eb7b1cd826492e10ddbcd972967dacc4117ae0980","s":"0x3522f3910cafc318bb985bd5829fd7b31279e1654fa8be325d3a2d3ea8bcb694","from":"0xf39Fd6e51aad88F6F4ce6aB8827279cffFb92266","confirmations":0} 



[2024-08-04T22:45:07.541] [ERROR] webApp - Error occurred in registerDID function  Error: invalid codepoint at offset 2; missing continuation byte (argument="bytes", value=Uint8Array(0x63d61166000000000000000000000000f39fd6e51aad88f6f4ce6ab8827279cfffb92266000000000000000000000000000000000000000000000000000000000000004000000000000000000000000000000000000000000000000000000000000001bc7b2240636f6e74657874223a2268747470733a2f2f773369642e6f72672f6469642f7631222c226964223a226469643a706f6c79676f6e3a746573746e65743a307866333946643665353161616438384636463463653661423838323732373963666646623932323636222c22766572696669636174696f6e4d6574686f64223a5b7b226964223a226469643a706f6c79676f6e3a746573746e65743a307866333946643665353161616438384636463463653661423838323732373963666646623932323636236b65792d31222c2274797065223a224563647361536563703235366b31566572696669636174696f6e4b657932303139222c22636f6e74726f6c6c6572223a226469643a706f6c79676f6e3a746573746e65743a307866333946643665353161616438384636463463653661423838323732373963666646623932323636222c227075626c69634b6579426173653538223a22374c6e6d31657a397434796e504870374d6f47394c7769646738564b77514c557255747466764847587a384c64644d633874517255554446756b556770515a52566d347878394b477941553845367633744270414848336f4579796143227d5d7d00000000), code=INVALID_ARGUMENT, version=strings/5.7.0)
[2024-08-04T22:46:41.365] [INFO] webApp - [registerDID] txnHash - {"type":2,"chainId":31337,"nonce":35,"maxPriorityFeePerGas":{"type":"BigNumber","hex":"0x59682f00"},"maxFeePerGas":{"type":"BigNumber","hex":"0x5a8b1116"},"gasPrice":null,"gasLimit":{"type":"BigNumber","hex":"0x70ad"},"to":"0xE1bc36Ac1F0F1D7B77F0e1CF44633184076ac7Af","value":{"type":"BigNumber","hex":"0x00"},"data":"0x63d61166000000000000000000000000f39fd6e51aad88f6f4ce6ab8827279cfffb92266000000000000000000000000000000000000000000000000000000000000004000000000000000000000000000000000000000000000000000000000000001bc7b2240636f6e74657874223a2268747470733a2f2f773369642e6f72672f6469642f7631222c226964223a226469643a706f6c79676f6e3a746573746e65743a307866333946643665353161616438384636463463653661423838323732373963666646623932323636222c22766572696669636174696f6e4d6574686f64223a5b7b226964223a226469643a706f6c79676f6e3a746573746e65743a307866333946643665353161616438384636463463653661423838323732373963666646623932323636236b65792d31222c2274797065223a224563647361536563703235366b31566572696669636174696f6e4b657932303139222c22636f6e74726f6c6c6572223a226469643a706f6c79676f6e3a746573746e65743a307866333946643665353161616438384636463463653661423838323732373963666646623932323636222c227075626c69634b6579426173653538223a22374c6e6d31657a397434796e504870374d6f47394c7769646738564b77514c557255747466764847587a384c64644d633874517255554446756b556770515a52566d347878394b477941553845367633744270414848336f4579796143227d5d7d00000000","accessList":[],"hash":"0x0ebb61d4e9f680b6f1ee38594364db735d7d6c97355f136f281796370dbe9bf1","v":0,"r":"0x766dc8ea3a20e19a3474964e5f3e43c09a6d03a489ef284653f33a96a427a313","s":"0x7976a1b325a89e2c8638e3fa1c28d94f9dd589ea114bc4c384d0126fe75b06c4","from":"0xf39Fd6e51aad88F6F4ce6aB8827279cffFb92266","confirmations":0} 



[2024-08-04T22:49:39.453] [INFO] webApp - [registerDID] txnHash - {"type":2,"chainId":31337,"nonce":36,"maxPriorityFeePerGas":{"type":"BigNumber","hex":"0x59682f00"},"maxFeePerGas":{"type":"BigNumber","hex":"0x5a66c6ba"},"gasPrice":null,"gasLimit":{"type":"BigNumber","hex":"0x70ad"},"to":"0xE1bc36Ac1F0F1D7B77F0e1CF44633184076ac7Af","value":{"type":"BigNumber","hex":"0x00"},"data":"0x63d61166000000000000000000000000f39fd6e51aad88f6f4ce6ab8827279cfffb92266000000000000000000000000000000000000000000000000000000000000004000000000000000000000000000000000000000000000000000000000000001bc7b2240636f6e74657874223a2268747470733a2f2f773369642e6f72672f6469642f7631222c226964223a226469643a706f6c79676f6e3a746573746e65743a307866333946643665353161616438384636463463653661423838323732373963666646623932323636222c22766572696669636174696f6e4d6574686f64223a5b7b226964223a226469643a706f6c79676f6e3a746573746e65743a307866333946643665353161616438384636463463653661423838323732373963666646623932323636236b65792d31222c2274797065223a224563647361536563703235366b31566572696669636174696f6e4b657932303139222c22636f6e74726f6c6c6572223a226469643a706f6c79676f6e3a746573746e65743a307866333946643665353161616438384636463463653661423838323732373963666646623932323636222c227075626c69634b6579426173653538223a22374c6e6d31657a397434796e504870374d6f47394c7769646738564b77514c557255747466764847587a384c64644d633874517255554446756b556770515a52566d347878394b477941553845367633744270414848336f4579796143227d5d7d00000000","accessList":[],"hash":"0x493ad242c0122503a4c80a8ced73e12f02a1cf94e4db4ab75a80526221e2df2c","v":1,"r":"0x115d32a203128645bfb17581257311ffc94e091cb87f438b7052ccea88cac251","s":"0x092369d71ca5374aecb6242e492beed25ff698e0d6802bd3329ed65caadae567","from":"0xf39Fd6e51aad88F6F4ce6aB8827279cffFb92266","confirmations":0} 



